:020000040800F2
:10000000700C002089010008A7100008850A00086C
:10001000A51000088F02000803110008000000006E
:10002000000000000000000000000000AB1000080D
:100030009102000800000000A9100008AD1000089F
:10004000A3010008A3010008A3010008A301000800
:10005000A3010008A3010008A3010008A3010008F0
:10006000A3010008A3010008A3010008A3010008E0
:10007000A3010008A3010008A3010008A3010008D0
:10008000A3010008A3010008A3010008A3010008C0
:10009000A3010008A3010008A3010008A3010008B0
:1000A000A3010008A3010008A3010008A3010008A0
:1000B000A3010008A3010008A3010008A301000890
:1000C000A3010008A3010008A3010008A301000880
:1000D000A3010008A3010008A3010008A301000870
:1000E000A3010008A3010008A301000800F002F822
:1000F00000F03AF80AA090E8000C82448344AAF188
:100100000107DA4501D100F02FF8AFF2090EBAE885
:100110000F0013F0010F18BFFB1A43F0010318473B
:100120004010000060100000103A24BF78C878C169
:10013000FAD8520724BF30C830C144BF04680C60ED
:10014000704700000023002400250026103A28BF35
:1001500078C1FBD8520728BF30C148BF0B60704739
:100160001FB51FBD10B510BD00F058F81146FFF7C0
:10017000F7FF00F0D7FF00F076F803B4FFF7F2FFC7
:1001800003BC00F07DF8000009488047094800479B
:10019000FEE7FEE7FEE7FEE7FEE7FEE7FEE7FEE737
:1001A000FEE7FEE704480549054A064B7047000094
:1001B00001110008ED00000870000020700C002004
:1001C00070040020700400204FF0000200B51346B8
:1001D00094469646203922BFA0E80C50A0E80C5067
:1001E000B1F12001BFF4F7AF090728BFA0E80C5018
:1001F00048BF0CC05DF804EB890028BF40F8042B11
:1002000008BF704748BF20F8022B11F0804F18BF7D
:1002100000F8012B7047704770477047754600F033
:100220002BF8AE4605006946534620F00700854688
:1002300018B020B5FFF7B6FFBDE820404FF000062C
:100240004FF000074FF000084FF0000B21F00701BE
:10025000AC46ACE8C009ACE8C009ACE8C009ACE801
:10026000C0098D46704710B50446AFF300802046A4
:10027000BDE81040FFF781BF004870471000002024
:1002800001491820ABBEFEE7260002007047FEE7DA
:100290007047000070B5044600F004F90546601C84
:1002A00002D004480078044400F0FCF8401BA0424F
:1002B000FAD370BD000000202DE9F84FDFF8B891A7
:1002C0000024A9F1040B23460F2709F1040AABF11E
:1002D000040EC9E00125A5402A40AA427DD1674EFF
:1002E000D1F804C0ACEB0608B44532D014DCBCF144
:1002F000030F3AD009DCBCF1000F2AD0BCF1010F8A
:100300001CD0BCF1020F31D11DE0BCF1110F17D090
:10031000BCF1120F2AD119E0B8F5881F19D006DCFC
:10032000B8F5803F15D0B8F5801F1FD111E0B8F5A2
:10033000001F0ED0B8F5041F18D10AE0CB6815E0F5
:10034000CB681B1D12E0CB6808330FE0CB680C3381
:100350000CE08B682BB1012B4FF0080303D04561F3
:1003600004E0042302E0056100E00023FF2A01D835
:10037000064601E000F104064FEA840501D9A5F123
:100380002005D6F8008007FA05FC28EA0C0803FAD5
:1003900005F548EA0508C6F800804D68ED0062D50D
:1003A000374DAE6946F00106AE61AD6924F0030633
:1003B00005F001050095334D06EB050CDCF80850FF
:1003C000A607360F07FA06F825EA0805DFF8B88011
:1003D000404503D14FF0000817E044E0DFF8AC805F
:1003E000404502D14FF001080FE0DFF8A4804045FE
:1003F00002D14FF0020808E0DFF89880404502D1B2
:100400004FF0030801E04FF0040808FA06F848EA44
:100410000508CCF808804D68D9F80060ED024D461B
:1004200001D5164300E096432E604D68DAF800606F
:10043000AD02554601D5164300E096432E604D6847
:10044000DBF80060AD035D4601D5164300E096433E
:100450002E604D68DEF80060ED03754601D5164349
:1004600000E096432E60641C0D682A46E5407FF448
:1004700031AFBDE8F88F0000080401400000111002
:10048000001002400000014000080140000C014043
:1004900000100140001401400AB1016170470904D5
:1004A000FBE7000001488068704700000000002062
:1004B0000248816802781144816070470000002082
:1004C000074810B5016841F010010160032000F0F9
:1004D00067F80F2000F006F800F024F8002010BDA7
:1004E0000020024070B50D4D04464FF47A71287813
:1004F000B1FBF0F00A490968B1FBF0F000F0AEFA88
:1005000048B9102C07D200222146501E00F028F8CE
:1005100000206C6070BD012070BD00000000002054
:100520000C0000200C4808B5816941F0010181618F
:10053000816901F001010091C16941F08051C161FF
:10054000C06900F0805000900448416821F0E061EB
:1005500041F08061416008BD001002400000014090
:10056000F0B40E4B1B680C46C3F30223C3F107051E
:10057000042D00D90425191D072901D2002300E00C
:10058000DB1E012606FA05F1491E214099409E40D6
:10059000761E16403143F0BC00F0B4BD0CED00E017
:1005A000064900F0070208684FF6FF03184040EACA
:1005B0000220034A10430860704700000CED00E081
:1005C0000000FA052DE9F0470F46050061D0434EC3
:1005D000306800F00700B84209D2306820F0070008
:1005E00038433060306800F00700B84251D12868C5
:1005F0003B4C810712D5400703D5606840F4E060AA
:1006000060602878000703D5606840F4605060603F
:100610006068A96820F0F000084360602878C0078F
:1006200028D06868012810D02168022810D08907D6
:1006300000292EDA616821F0030101436160FFF7B0
:1006400031FF804641F288390DE021688903EFE7E8
:100650008901EDE7FFF726FFA0EB0801494502D924
:100660000320BDE8F0876068696800F00C00B0EB1B
:10067000810FEFD1306800F00700B8420BD9306825
:1006800020F0070038433060306800F00700B842BF
:1006900001D00120E5E72878400705D56068E968C2
:1006A00020F4E060084360602878000706D56068A1
:1006B000296920F4605040EAC100606000F018F839
:1006C0006168084AC1F30311515CC84006490860DB
:1006D00006480068FFF706FF0020C2E7002002403E
:1006E00000100240501100080C00002004000020FF
:1006F0000E4A51680E4801F00C03042B11D0082B50
:100700000FD10C48C1F38343C903C05C0AD55168BB
:10071000084AC1F34041921E515C054A5043B0FB68
:10072000F1F0704704494843704700000010024050
:1007300000127A004011000800093D002DE9F84F31
:10074000040070D02078C04DC00749D06868C0F35D
:100750008100012807D06868C0F38100022809D110
:100760006868C00306D52868800339D5606800280A
:10077000E7D035E06068B0F5803F0BD010B1B0F540
:10078000A02F11D0286820F480302860286820F439
:10079000802002E0286840F480302860606890B1D2
:1007A000FFF780FE06460AE0286840F480202860B3
:1007B000F0E700BFFFF776FE801B642873D8286837
:1007C0008003F7D50CE0FFF76DFE064605E000BF9D
:1007D000FFF768FE801B6428F0D828688003F7D4F0
:1007E00020789A4E80074FF001094FF0000839D564
:1007F000686810F00C0F07D06868C0F38100022809
:1008000009D16868C00306D42868800714D5206918
:10081000012808D110E02069B0B1C6F80090FFF7B8
:1008200041FE074605E00AE1FFF73CFEC01B022837
:10083000C4D828688007F7D52868616920F0F800D7
:1008400040EAC10028600DE0C6F80080FFF72AFEEC
:10085000074604E0FFF726FEC01B022823D82868BD
:100860008007F7D4207800072CD57948A169D9B141
:10087000C0F80090FFF716FE074604E0FFF712FEEF
:10088000C01B02280FD8686A8007F7D571484FF45B
:10089000FA510068B0FBF1F0009000BF0098411ED3
:1008A0000091FAD20EE080E0C0F80080FFF7FAFD78
:1008B000074604E0FFF7F6FDC01B022875D8686AFA
:1008C0008007F7D42078400760D5E8690027C0008A
:1008D00008D4E86940F08050E861E869012700F039
:1008E000805000905C480168C90513D401688346B4
:1008F00041F480710160FFF7D5FD824606E000BF3C
:10090000FFF7D0FDA0EB0A0064284ED8DBF800000A
:10091000C005F5D5E06801280AD008B1052813D034
:10092000286A20F001002862286A20F0040002E012
:10093000286A40F001002862E06841F2883B98B1E3
:10094000FFF7B0FD82460BE0286A40F00400286201
:10095000EEE700BFFFF7A6FDA0EB0A0159455AD804
:10096000286A8007F6D50CE0FFF79CFD824605E07B
:10097000FFF798FDA0EB0A0159454CD8286A80077B
:10098000F6D41FB1E86920F08050E861E06988B3CF
:100990006968C1F38101022944D00228C6F8608049
:1009A00004D0FFF77FFD044638E034E0FFF77AFD1E
:1009B000074604E0FFF776FDC01B02282BD8286805
:1009C0008001F7D4206AB0F5803F05D16868A1683E
:1009D00020F4003008436860D4E9080108436968DE
:1009E00021F4741108436860C6F86090FFF75AFD5F
:1009F000044606E025E000BFFFF754FD001B022877
:100A000009D828688001F7D51BE000BFFFF74AFD31
:100A1000001B022802D90320BDE8F88F2868800156
:100A2000F4D40EE00128F7D06868226A00F480311F
:100A3000914204D1616A00F47010884201D0012013
:100A4000EAE70020E8E70000001002400000424210
:100A5000800442420C0000200070004010B5401E8F
:100A6000B0F1807F01D3012010BD4FF0E024606120
:100A70000F21601700F046FB0020A06107202061D5
:100A8000002010BDFEE700002DE9F04706460021DA
:100A90001C4F40F2AF13EF22084600F043FA2C201F
:100AA00000F066FA184C4FF480304FEA162A06F030
:100AB000FF0920600220206045044FF004089EB129
:100AC0000026504600F07CFA2560C4F800804846B5
:100AD00000F076FA2560C4F80080761CBE42F0D3A0
:100AE00001202060BDE8F087002000F069FA0020B6
:100AF00041462560216025602160401CB842F8D342
:100B0000EEE70000009501001008014010B532200A
:100B1000FFF7C0FB00F0F4F9E02000F029FA012013
:100B200000F03AFA112000F023FA9620FFF7B2FB0A
:100B3000F32000F01DFA012000F02EFA002000F052
:100B40002BFA002000F028FA0C2000F025FA0320F0
:100B500000F022FA752000F01FFA752000F01CFA50
:100B6000302000F019FAF42000F002FA4C2000F0D6
:100B700013FA4C2000F010FA442000F00DFA442043
:100B800000F00AFA222000F007FAF52000F0F0F950
:100B9000102000F001FA222000F0FEF9052000F0FC
:100BA000FBF9F02000F0F8F9702000F0F5F91F20B3
:100BB00000F0F2F91E20FFF76DFBF32000F0D8F9EA
:100BC000032000F0E9F91E20FFF764FBF32000F09A
:100BD000CFF9072000F0E0F91E20FFF75BFBF320C0
:100BE00000F0C6F90F2000F0D7F91E20FFF752FBE6
:100BF000F32000F0BDF91F2000F0CEF91E20FFF712
:100C000049FBF32000F0B4F97F2000F0C5F91E2065
:100C1000FFF740FBF72000F0ABF9802000F0BCF9B3
:100C2000002000F0B9F9002000F0B6F9052000F02E
:100C3000B3F90D2000F0B0F91F2000F0ADF9262027
:100C400000F0AAF92D2000F0A7F9142000F0A4F973
:100C5000152000F0A1F9262000F09EF9202000F0D8
:100C60009BF9012000F098F9222000F095F922204C
:100C700000F092F9F82000F07BF9802000F08CF968
:100C8000002000F089F9002000F086F9002000F033
:100C900083F9072000F080F91E2000F07DF92A205A
:100CA00000F07AF9322000F077F9102000F074F9A2
:100CB000162000F071F9362000F06EF93C2000F0AB
:100CC0006BF93B2000F068F9222000F065F9222042
:100CD00000F062F9F92000F04BF9802000F05CF997
:100CE000002000F059F9002000F056F9052000F02E
:100CF00053F90D2000F050F91F2000F04DF9262087
:100D000000F04AF92D2000F047F9142000F044F9D2
:100D1000152000F041F9262000F03EF9202000F0D7
:100D20003BF9012000F038F9222000F035F92220AB
:100D300000F032F9FA2000F01BF9802000F02CF9C5
:100D4000002000F029F9002000F026F9002000F032
:100D500023F9072000F020F91E2000F01DF92A20B9
:100D600000F01AF9322000F017F9102000F014F901
:100D7000162000F011F9362000F00EF93C2000F0AA
:100D80000BF93B2000F008F9222000F005F92220A1
:100D900000F002F9FB2000F0EBF8802000F0FCF8F6
:100DA000002000F0F9F8002000F0F6F8052000F02F
:100DB000F3F80D2000F0F0F81F2000F0EDF82620E9
:100DC00000F0EAF82D2000F0E7F8142000F0E4F835
:100DD000152000F0E1F8262000F0DEF8202000F0D9
:100DE000DBF8012000F0D8F8222000F0D5F822200E
:100DF00000F0D2F8FC2000F0BBF8802000F0CCF826
:100E0000002000F0C9F8002000F0C6F8002000F033
:100E1000C3F8072000F0C0F81E2000F0BDF82A201B
:100E200000F0BAF8322000F0B7F8102000F0B4F863
:100E3000162000F0B1F8362000F0AEF83C2000F0AB
:100E4000ABF83B2000F0A8F8222000F0A5F8222003
:100E500000F0A2F8342000F08BF8362000F088F87B
:100E6000802000F099F83A2000F082F8552000F038
:100E700093F8F22000F07CF8172000F08DF817208E
:100E800000F08AF80F2000F087F8082000F084F8BE
:100E9000082000F081F8002000F07EF8002000F02B
:100EA0007BF8002000F078F8062000F075F8132099
:100EB00000F072F8002000F06FF8F62000F058F80B
:100EC000002000F069F8802000F066F8002000F0B3
:100ED00063F8002000F060F8FD2000F049F80220DF
:100EE00000F05AF8002000F057F81420FFF7D2F96C
:100EF000292000F03DF8BDE810401420FFF7CAB9E2
:100F000010B5074C4FF4002020609620FFF7C2F97F
:100F100008202060BDE810409620FFF7BBB9000014
:100F2000100801402DE9F04107461C4615460E46C3
:100F30002A2000F01DF8380A00F02EF8F8B200F070
:100F40002BF8280A00F028F8E8B200F025F82B204A
:100F500000F00EF8300A00F01FF8F0B200F01CF8B4
:100F6000200A00F019F8E0B2BDE8F04100F014B832
:100F700010B5084C4FF4803121604900216000F029
:100F80001FF84FF4802020600420206001202060A2
:100F900010BD00001008014010B5084C4FF480311E
:100FA00021600221216000F00BF84FF480202060C6
:100FB000042020600120206010BD000010080140C6
:100FC000034A1168C9B241EA00201060704700006E
:100FD0000C0C01402DE9F04385B000242D4800940D
:100FE000019402940394816941F010018161816947
:100FF00001F010010491816941F020018161816952
:1010000001F020010491816941F00401816181694D
:1010100001F004010491816941F008018161806956
:101020001D4E00F008004FF40055049000222946A0
:101030003046FFF731FADFF8648001220F21404685
:10104000FFF72AFADFF858904FF47F47012239461C
:101050004846FFF721FA00950125CDE9015469467C
:1010600030460395FFF728F90F200326CDE9000548
:10107000CDE9024669464046FFF71EF90097039600
:10108000CDE9015469464846FFF716F905B0BDE8B9
:10109000F0830000001002400010014000080140F1
:1010A000000C0140FEE7FEE770477047FFF700BA0B
:1010B00010B590B028216846FFF786F814210AA8D9
:1010C000FFF782F8022000900120049010200024F5
:1010D000059007946846FFF731FB08B172B6FEE74A
:1010E0000F20CDE90A040C940D9400210AA80E9457
:1010F000FFF768FA002801D072B6FEE710B010BD05
:101100007047FEE70907090E002804DB00F1E02024
:1011100080F80014704700F00F0000F1E02080F824
:10112000141D7047FFF7CCF9FFF7C2FFFFF752FF1E
:10113000FFF7ECFC4FF47840FFF7A6FCFEE7010256
:1011400002030405060708090A0B0C0D0E0F101008
:101150000000000000000000010203040607080967
:101160008011000800000020100000002801000885
:101170009011000810000020600C000044010008DD
:1011800001000000100000000000000000127A00C2
:04000005080000ED02
:00000001FF
